{
  "contractName": "MedicalReport",
  "abi": [
    {
      "anonymous": false,
      "inputs": [
        {
          "indexed": true,
          "internalType": "address",
          "name": "patient",
          "type": "address"
        },
        {
          "indexed": false,
          "internalType": "string",
          "name": "reportHash",
          "type": "string"
        },
        {
          "indexed": false,
          "internalType": "address",
          "name": "doctor",
          "type": "address"
        }
      ],
      "name": "ReportAdded",
      "type": "event"
    },
    {
      "anonymous": false,
      "inputs": [
        {
          "indexed": true,
          "internalType": "address",
          "name": "patient",
          "type": "address"
        },
        {
          "indexed": false,
          "internalType": "string",
          "name": "reportHash",
          "type": "string"
        }
      ],
      "name": "ReportApproved",
      "type": "event"
    },
    {
      "inputs": [
        {
          "internalType": "address",
          "name": "",
          "type": "address"
        },
        {
          "internalType": "uint256",
          "name": "",
          "type": "uint256"
        }
      ],
      "name": "reportsByPatient",
      "outputs": [
        {
          "internalType": "string",
          "name": "reportHash",
          "type": "string"
        },
        {
          "internalType": "address",
          "name": "doctor",
          "type": "address"
        },
        {
          "internalType": "bool",
          "name": "isApproved",
          "type": "bool"
        }
      ],
      "stateMutability": "view",
      "type": "function"
    },
    {
      "inputs": [
        {
          "internalType": "address",
          "name": "patient",
          "type": "address"
        },
        {
          "internalType": "string",
          "name": "reportHash",
          "type": "string"
        }
      ],
      "name": "addReport",
      "outputs": [],
      "stateMutability": "nonpayable",
      "type": "function"
    },
    {
      "inputs": [
        {
          "internalType": "uint256",
          "name": "reportIndex",
          "type": "uint256"
        }
      ],
      "name": "approveReport",
      "outputs": [],
      "stateMutability": "nonpayable",
      "type": "function"
    },
    {
      "inputs": [
        {
          "internalType": "address",
          "name": "patient",
          "type": "address"
        }
      ],
      "name": "getReports",
      "outputs": [
        {
          "components": [
            {
              "internalType": "string",
              "name": "reportHash",
              "type": "string"
            },
            {
              "internalType": "address",
              "name": "doctor",
              "type": "address"
            },
            {
              "internalType": "bool",
              "name": "isApproved",
              "type": "bool"
            }
          ],
          "internalType": "struct MedicalReport.Report[]",
          "name": "",
          "type": "tuple[]"
        }
      ],
      "stateMutability": "view",
      "type": "function"
    }
  ],
  "bytecode": "0x608060405234801561000f575f80fd5b506110108061001d5f395ff3fe608060405234801561000f575f80fd5b506004361061004a575f3560e01c80630c0346431461004e5780633d3d71821461006a578063517e83a01461009a578063f099e1a1146100b6575b5f80fd5b6100686004803603810190610063919061081f565b6100e8565b005b610084600480360381019061007f9190610879565b61024d565b6040516100919190610a4f565b60405180910390f35b6100b460048036038101906100af9190610aa2565b6103e4565b005b6100d060048036038101906100cb9190610acd565b610587565b6040516100df93929190610b71565b60405180910390f35b5f808373ffffffffffffffffffffffffffffffffffffffff1673ffffffffffffffffffffffffffffffffffffffff1681526020019081526020015f2060405180606001604052808381526020013373ffffffffffffffffffffffffffffffffffffffff1681526020015f1515815250908060018154018082558091505060019003905f5260205f2090600202015f909190919091505f820151815f0190816101909190610da7565b506020820151816001015f6101000a81548173ffffffffffffffffffffffffffffffffffffffff021916908373ffffffffffffffffffffffffffffffffffffffff16021790555060408201518160010160146101000a81548160ff02191690831515021790555050508173ffffffffffffffffffffffffffffffffffffffff167fadc25592b80f6357609f296062cf85b3b232a6a5ecd551f2cd6e91bdaa8bd2dd8233604051610241929190610e76565b60405180910390a25050565b60605f808373ffffffffffffffffffffffffffffffffffffffff1673ffffffffffffffffffffffffffffffffffffffff1681526020019081526020015f20805480602002602001604051908101604052809291908181526020015f905b828210156103d9578382905f5260205f2090600202016040518060600160405290815f820180546102da90610bda565b80601f016020809104026020016040519081016040528092919081815260200182805461030690610bda565b80156103515780601f1061032857610100808354040283529160200191610351565b820191905f5260205f20905b81548152906001019060200180831161033457829003601f168201915b50505050508152602001600182015f9054906101000a900473ffffffffffffffffffffffffffffffffffffffff1673ffffffffffffffffffffffffffffffffffffffff1673ffffffffffffffffffffffffffffffffffffffff1681526020016001820160149054906101000a900460ff161515151581525050815260200190600101906102aa565b505050509050919050565b5f803373ffffffffffffffffffffffffffffffffffffffff1673ffffffffffffffffffffffffffffffffffffffff1681526020019081526020015f20805490508110610465576040517f08c379a000000000000000000000000000000000000000000000000000000000815260040161045c90610eee565b60405180910390fd5b60015f803373ffffffffffffffffffffffffffffffffffffffff1673ffffffffffffffffffffffffffffffffffffffff1681526020019081526020015f2082815481106104b5576104b4610f0c565b5b905f5260205f20906002020160010160146101000a81548160ff0219169083151502179055503373ffffffffffffffffffffffffffffffffffffffff167ff12284fe5dd900687a3e13d790f0fa0367089cafbc37f14cd4430241b5be3a105f803373ffffffffffffffffffffffffffffffffffffffff1673ffffffffffffffffffffffffffffffffffffffff1681526020019081526020015f20838154811061056157610560610f0c565b5b905f5260205f2090600202015f0160405161057c9190610fba565b60405180910390a250565b5f602052815f5260405f20818154811061059f575f80fd5b905f5260205f2090600202015f9150915050805f0180546105bf90610bda565b80601f01602080910402602001604051908101604052809291908181526020018280546105eb90610bda565b80156106365780601f1061060d57610100808354040283529160200191610636565b820191905f5260205f20905b81548152906001019060200180831161061957829003601f168201915b505050505090806001015f9054906101000a900473ffffffffffffffffffffffffffffffffffffffff16908060010160149054906101000a900460ff16905083565b5f604051905090565b5f80fd5b5f80fd5b5f73ffffffffffffffffffffffffffffffffffffffff82169050919050565b5f6106b282610689565b9050919050565b6106c2816106a8565b81146106cc575f80fd5b50565b5f813590506106dd816106b9565b92915050565b5f80fd5b5f80fd5b5f601f19601f8301169050919050565b7f4e487b71000000000000000000000000000000000000000000000000000000005f52604160045260245ffd5b610731826106eb565b810181811067ffffffffffffffff821117156107505761074f6106fb565b5b80604052505050565b5f610762610678565b905061076e8282610728565b919050565b5f67ffffffffffffffff82111561078d5761078c6106fb565b5b610796826106eb565b9050602081019050919050565b828183375f83830152505050565b5f6107c36107be84610773565b610759565b9050828152602081018484840111156107df576107de6106e7565b5b6107ea8482856107a3565b509392505050565b5f82601f830112610806576108056106e3565b5b81356108168482602086016107b1565b91505092915050565b5f806040838503121561083557610834610681565b5b5f610842858286016106cf565b925050602083013567ffffffffffffffff81111561086357610862610685565b5b61086f858286016107f2565b9150509250929050565b5f6020828403121561088e5761088d610681565b5b5f61089b848285016106cf565b91505092915050565b5f81519050919050565b5f82825260208201905092915050565b5f819050602082019050919050565b5f81519050919050565b5f82825260208201905092915050565b5f5b838110156109045780820151818401526020810190506108e9565b5f8484015250505050565b5f610919826108cd565b61092381856108d7565b93506109338185602086016108e7565b61093c816106eb565b840191505092915050565b610950816106a8565b82525050565b5f8115159050919050565b61096a81610956565b82525050565b5f606083015f8301518482035f86015261098a828261090f565b915050602083015161099f6020860182610947565b5060408301516109b26040860182610961565b508091505092915050565b5f6109c88383610970565b905092915050565b5f602082019050919050565b5f6109e6826108a4565b6109f081856108ae565b935083602082028501610a02856108be565b805f5b85811015610a3d5784840389528151610a1e85826109bd565b9450610a29836109d0565b925060208a01995050600181019050610a05565b50829750879550505050505092915050565b5f6020820190508181035f830152610a6781846109dc565b905092915050565b5f819050919050565b610a8181610a6f565b8114610a8b575f80fd5b50565b5f81359050610a9c81610a78565b92915050565b5f60208284031215610ab757610ab6610681565b5b5f610ac484828501610a8e565b91505092915050565b5f8060408385031215610ae357610ae2610681565b5b5f610af0858286016106cf565b9250506020610b0185828601610a8e565b9150509250929050565b5f82825260208201905092915050565b5f610b25826108cd565b610b2f8185610b0b565b9350610b3f8185602086016108e7565b610b48816106eb565b840191505092915050565b610b5c816106a8565b82525050565b610b6b81610956565b82525050565b5f6060820190508181035f830152610b898186610b1b565b9050610b986020830185610b53565b610ba56040830184610b62565b949350505050565b7f4e487b71000000000000000000000000000000000000000000000000000000005f52602260045260245ffd5b5f6002820490506001821680610bf157607f821691505b602082108103610c0457610c03610bad565b5b50919050565b5f819050815f5260205f209050919050565b5f6020601f8301049050919050565b5f82821b905092915050565b5f60088302610c667fffffffffffffffffffffffffffffffffffffffffffffffffffffffffffffffff82610c2b565b610c708683610c2b565b95508019841693508086168417925050509392505050565b5f819050919050565b5f610cab610ca6610ca184610a6f565b610c88565b610a6f565b9050919050565b5f819050919050565b610cc483610c91565b610cd8610cd082610cb2565b848454610c37565b825550505050565b5f90565b610cec610ce0565b610cf7818484610cbb565b505050565b5b81811015610d1a57610d0f5f82610ce4565b600181019050610cfd565b5050565b601f821115610d5f57610d3081610c0a565b610d3984610c1c565b81016020851015610d48578190505b610d5c610d5485610c1c565b830182610cfc565b50505b505050565b5f82821c905092915050565b5f610d7f5f1984600802610d64565b1980831691505092915050565b5f610d978383610d70565b9150826002028217905092915050565b610db0826108cd565b67ffffffffffffffff811115610dc957610dc86106fb565b5b610dd38254610bda565b610dde828285610d1e565b5f60209050601f831160018114610e0f575f8415610dfd578287015190505b610e078582610d8c565b865550610e6e565b601f198416610e1d86610c0a565b5f5b82811015610e4457848901518255600182019150602085019450602081019050610e1f565b86831015610e615784890151610e5d601f891682610d70565b8355505b6001600288020188555050505b505050505050565b5f6040820190508181035f830152610e8e8185610b1b565b9050610e9d6020830184610b53565b9392505050565b7f496e76616c6964207265706f727420696e6465780000000000000000000000005f82015250565b5f610ed8601483610b0b565b9150610ee382610ea4565b602082019050919050565b5f6020820190508181035f830152610f0581610ecc565b9050919050565b7f4e487b71000000000000000000000000000000000000000000000000000000005f52603260045260245ffd5b5f8154610f4581610bda565b610f4f8186610b0b565b9450600182165f8114610f695760018114610f7f57610fb1565b60ff198316865281151560200286019350610fb1565b610f8885610c0a565b5f5b83811015610fa957815481890152600182019150602081019050610f8a565b808801955050505b50505092915050565b5f6020820190508181035f830152610fd28184610f39565b90509291505056fea26469706673582212208b4c1fef11230d51f7b74bd839b20158cc86b21f88c4d02885d26787acfac13b64736f6c63430008150033",
  "immutableReferences": {},
  "source": "// SPDX-License-Identifier: MIT\r\npragma solidity ^0.8.0;\r\n\r\ncontract MedicalReport {\r\n    struct Report {\r\n        string reportHash; // IPFS hash of the medical report\r\n        address doctor;\r\n        bool isApproved;\r\n    }\r\n\r\n    mapping(address => Report[]) public reportsByPatient;\r\n\r\n    // Event for storing the report\r\n    event ReportAdded(address indexed patient, string reportHash, address doctor);\r\n    event ReportApproved(address indexed patient, string reportHash);\r\n\r\n    // Function for a doctor to add a report\r\n    function addReport(address patient, string memory reportHash) public {\r\n        reportsByPatient[patient].push(Report(reportHash, msg.sender, false));\r\n        emit ReportAdded(patient, reportHash, msg.sender);\r\n    }\r\n\r\n    // Function for the patient to approve the report\r\n    function approveReport(uint reportIndex) public {\r\n        require(reportIndex < reportsByPatient[msg.sender].length, \"Invalid report index\");\r\n        reportsByPatient[msg.sender][reportIndex].isApproved = true;\r\n        emit ReportApproved(msg.sender, reportsByPatient[msg.sender][reportIndex].reportHash);\r\n    }\r\n\r\n    // Function to get all reports for a patient\r\n    function getReports(address patient) public view returns (Report[] memory) {\r\n        return reportsByPatient[patient];\r\n    }\r\n}\r\n",
  "sourcePath": "C:\\Users\\Vihit\\Documents\\Personal Projects\\CureLink AI\\blockchain\\contracts\\MedicalReport.sol",
  "compiler": {
    "name": "solc",
    "version": "0.8.21+commit.d9974bed.Emscripten.clang"
  },
  "schemaVersion": "3.4.16",
  "updatedAt": "2024-10-23T03:52:48.261Z",
  "devdoc": {
    "kind": "dev",
    "methods": {},
    "version": 1
  },
  "userdoc": {
    "kind": "user",
    "methods": {},
    "version": 1
  }
}